:020000040800F2
:10000000D808002089010008BB130008B7130008B6
:10001000B9130008FF02000855170008000000008F
:100020000000000000000000000000002F14000885
:100030000103000800000000BD130008311400088F
:10004000A3010008A3010008A3010008A301000800
:10005000A3010008A3010008A3010008A3010008F0
:10006000A3010008A3010008A3010008A3010008E0
:10007000A3010008A3010008A3010008A3010008D0
:10008000A3010008A3010008A3010008A3010008C0
:10009000A3010008A3010008A3010008A3010008B0
:1000A000A3010008A3010008A3010008A3010008A0
:1000B000A3010008A3010008A3010008A301000890
:1000C000A3010008A3010008A3010008A301000880
:1000D000A301000849170008A3010008A3010008B4
:1000E000A3010008A3010008A301000800F002F822
:1000F00000F03AF80AA090E8000C82448344AAF188
:100100000107DA4501D100F02FF8AFF2090EBAE885
:100110000F0013F0010F18BFFB1A43F0010318473B
:10012000641C0000841C0000103A24BF78C878C109
:10013000FAD8520724BF30C830C144BF04680C60ED
:10014000704700000023002400250026103A28BF35
:1001500078C1FBD8520728BF30C148BF0B60704739
:100160001FB51FBD10B510BD00F08FF81146FFF789
:10017000F7FF01F07DFB00F0ADF803B4FFF7F2FFED
:1001800003BC00F0B5F80000094880470948004763
:10019000FEE7FEE7FEE7FEE7FEE7FEE7FEE7FEE737
:1001A000FEE7FEE704480549054A064B7047000094
:1001B00093140008ED000008D8020020D8080020A1
:1001C000D8040020D8040020B2F120030AD5C2F1DF
:1001D000200320FA02F001FA03F321FA02F140EAC7
:1001E0000300704721FA03F04FF00001704740EA26
:1001F0000103024630B59B0710D14FF0013400E0F7
:1002000008C208C91D1B9D4315EAC41FF8D013F08E
:10021000FF0102F8011B0DD01B0AF8E711F8013BA2
:10022000002B02F8013B05D011F8013B002B02F82E
:10023000013BF3D130BD4FF0000200B513469446A8
:100240009646203922BFA0E80C50A0E80C50B1F12E
:100250002001BFF4F7AF090728BFA0E80C5048BF42
:100260000CC05DF804EB890028BF40F8042B08BFE0
:10027000704748BF20F8022B11F0804F18BF00F8DC
:10028000012B7047704770477047754600F02CF897
:10029000AE4605006946534620F00700854618B073
:1002A00020B5FFF77FFFBDE820404FF000064FF07C
:1002B00000074FF000084FF0000B21F00701AC469B
:1002C000ACE8C009ACE8C009ACE8C009ACE8C009BA
:1002D0008D46704710B50446AFF300802046BDE858
:1002E0001040FFF74ABF0000004870477802002026
:1002F00001491820ABBEFEE7260002007047FEE76A
:100300007047000006490020C8610648016941F0B5
:1003100004010161016941F0400101617047000081
:100320006800002000200240064A0021D1610649F1
:100330000A6942F002020A614861086940F040001F
:10034000086170476800002000200240044B002232
:10035000DA61044A136943F00103136101807047B5
:10036000680000200020024014480022C168CB062B
:10037000134904D5CA6942F00202CA611022C36857
:100380005B0705D5CB6943F00103CB6142F0040262
:10039000C369DB0707D0CB6943F00403CB61C169B4
:1003A00021F00101C161A2F58071013901D0C26063
:1003B0007047C16921F00101C1617047002002400E
:1003C0006800002070B5054600F048FA0646114C5A
:1003D00009E0681C07D025B100F040FA801BA84254
:1003E00001D9032070BDE068C007F2D1E068800643
:1003F00001D52020E060E068C00605D4E069C007B0
:1004000002D1E068400703D5FFF7AEFF012070BDC1
:10041000002070BD0020024010B590F8211000228D
:10042000022905D00421816380F82020012010BD1D
:1004300001680B6823F00E030B6001680B6823F062
:1004400001030B6090F84030C46B012101FA03F303
:10045000636080F8211080F82020104610BD000055
:1004600010B590F821100024022903D004218163E3
:1004700001243DE001680A6822F00E020A6001686A
:100480000A6822F001020A601A4A0168914201D109
:10049000012121E0174A1432914201D110211BE0C1
:1004A000144A2832914201D1891515E0114A3C3293
:1004B000914201D189140FE00E4A5032914202D18B
:1004C0004FF4803108E00B4A6432914202D14FF47C
:1004D000801101E04FF08071064A083A5160012115
:1004E00080F82110002180F82010416B01B188476D
:1004F000204610BD08000240064810B54FF0FF31FD
:10050000016100220261C160C26000F0E7F90020D1
:1005100010BD0000001002402DE9F04705462648B6
:100520000F460126017E01290FD001218146017667
:100530002868DFF888804CF25034022808D0A246A0
:100540002046FFF73FFFA8B131E00220BDE8F08769
:100550002046FFF737FF08BB0120FFF7D3FE2046F8
:10056000FFF730FFD8F81010064621F00401C8F854
:1005700010101CE04FF0FF303860AC6811E02046EE
:10058000FFF7D2FE5046FFF71DFFD8F81010060007
:1005900021F00201C8F8101001D03C6007E004F51A
:1005A0008064D5E9020100EB8120A042E7D8002158
:1005B00089F818103046C9E7680000200020024082
:1005C0000348016941F0800101610020704700008B
:1005D000002002402DE9F05F07461C4888460024B1
:1005E000017E15461E46012909D00121814601766A
:1005F0004CF2503A5046FFF7E5FE18B122E00220D7
:10060000BDE8F09F012F02D0022F00D00427D3466F
:10061000DFF83CA0220128463146FFF7D5FD81B224
:1006200008EB4400FFF792FE5846FFF7CBFEDAF8DE
:10063000102022F00102CAF8102018B9641CE4B29C
:10064000BC42E7D3002289F81820D9E768000020CF
:1006500000200240064900200A69120607D5054A13
:100660004A60054A4A600969090600D501207047B9
:100670000020024023016745AB89EFCD2DE9F84FFB
:10068000DFF8B8910024A9F1040B23460F2709F1E4
:10069000040AABF1040EC9E00125A5402A40AA4294
:1006A0007DD1674ED1F804C0ACEB0608B44532D01A
:1006B00014DCBCF1030F3AD009DCBCF1000F2AD0E6
:1006C000BCF1010F1CD0BCF1020F31D11DE0BCF117
:1006D000110F17D0BCF1120F2AD119E0B8F5881FFD
:1006E00019D006DCB8F5803F15D0B8F5801F1FD1B2
:1006F00011E0B8F5001F0ED0B8F5041F18D10AE0BC
:10070000CB6815E0CB681B1D12E0CB6808330FE007
:10071000CB680C330CE08B682BB1012B4FF0080336
:1007200003D0456104E0042302E0056100E00023FA
:10073000FF2A01D8064601E000F104064FEA8405CD
:1007400001D9A5F12005D6F8008007FA05FC28EAB2
:100750000C0803FA05F548EA0508C6F800804D685C
:10076000ED0062D5374DAE6946F00106AE61AD6968
:1007700024F0030605F001050095334D06EB050C4A
:10078000DCF80850A607360F07FA06F825EA080530
:10079000DFF8B880404503D14FF0000817E044E08F
:1007A000DFF8AC80404502D14FF001080FE0DFF8E0
:1007B000A480404502D14FF0020808E0DFF898809D
:1007C000404502D14FF0030801E04FF0040808FA59
:1007D00006F848EA0508CCF808804D68D9F80060AA
:1007E000ED024D4601D5164300E096432E604D685C
:1007F000DAF80060AD02554601D5164300E0964395
:100800002E604D68DBF80060AD035D4601D51643F0
:1008100000E096432E604D68DEF80060ED037546FB
:1008200001D5164300E096432E60641C0D682A46ED
:10083000E5407FF431AFBDE8F88F000008040140C7
:1008400000001110001002400000014000080140AB
:10085000000C014000100140001401400148806874
:1008600070470000040000200248816802781144AB
:100870008160704704000020074810B5016841F00E
:1008800010010160032000F077F80F2000F006F857
:1008900000F026F8002010BD0020024070B50D4D7C
:1008A00004464FF47A712878B1FBF0F00A490968E0
:1008B000B1FBF0F000F04CFB48B9102C07D200223D
:1008C0002146501E00F038F800206C6070BD0120F9
:1008D00070BD0000040000201000002070470000E0
:1008E0000C4808B5816941F001018161816901F01D
:1008F00001010091C16941F08051C161C06900F0FE
:10090000805000900448416821F0E06141F000719E
:10091000416008BD0010024000000140002809DBD2
:1009200000F01F02012191404009800000F1E02009
:10093000C0F8001170470000F0B40E4B1B680C4665
:10094000C3F30223C3F10705042D00D90425191DA3
:10095000072901D2002300E0DB1E012606FA05F17B
:10096000491E214099409E40761E16403143F0BCFE
:1009700000F0F1BE0CED00E0064900F00702086847
:100980004FF6FF03184040EA0220034A1043086074
:10099000704700000CED00E00000FA052DE9F0477B
:1009A0000F46050061D0434E306800F00700B842A2
:1009B00009D2306820F0070038433060306800F01A
:1009C0000700B84251D128683B4C810712D5400737
:1009D00003D5606840F4E06060602878000703D5C4
:1009E000606840F4605060606068A96820F0F000C2
:1009F000084360602878C00728D06868012810D0B4
:100A00002168022810D0890700292EDA616821F0B8
:100A1000030101436160FFF721FF804641F28839FD
:100A20000DE021688903EFE78901EDE7FFF716FF85
:100A3000A0EB0801494502D90320BDE8F0876068B2
:100A4000696800F00C00B0EB810FEFD1306800F066
:100A50000700B8420BD9306820F0070038433060F7
:100A6000306800F00700B84201D00120E5E728789F
:100A7000400705D56068E96820F4E06008436060DD
:100A80002878000706D56068296920F4605040EA9C
:100A9000C100606000F0A6F86168084AC1F3031164
:100AA000515CC8400649086006480068FFF7F6FE3A
:100AB0000020C2E700200240001002406A1D00082A
:100AC00010000020080000202DE9F041FFF7C6FECD
:100AD000304C0546206840F00100206005E000BF72
:100AE000FFF7BCFE401B022843D820688007F7D5DB
:100AF000206820F0F80040F080002060FFF7AEFE94
:100B000000250646656041F2883704E0FFF7A6FE3F
:100B1000801BB8422DD8606810F00C0FF6D11F4929
:100B20001D4808601E480068FFF7B8FE10B101209C
:100B3000BDE8F081FFF792FE0646206820F0807045
:100B4000206004E0FFF78AFE801B022811D820688D
:100B50008001F7D46560FFF781FE0646206820F427
:100B60001020206007E000BFFFF778FE801B64289C
:100B700001D90320DCE720688003F5D4206820F445
:100B800080202060606A40F080706062A560002074
:100B9000CEE700000010024000127A001000002092
:100BA000080000200448054900684968044AC1F368
:100BB0000221515CC8407047100000200010024024
:100BC0007A1D00080448054900684968044AC1F3D1
:100BD000C221515CC8407047100000200010024044
:100BE0007A1D00080E4A51680E4801F00C03042BD0
:100BF00011D0082B0FD10C48C1F38343C903C05C4B
:100C00000AD55168084AC1F34041921E515C054A19
:100C10005043B0FBF1F0704704494843704700006F
:100C20000010024000127A005A1D000800093D0021
:100C30002DE9F84F040070D02078C04DC00749D08E
:100C40006868C0F38100012807D06868C0F381009C
:100C5000022809D16868C00306D52868800339D501
:100C600060680028E7D035E06068B0F5803F0BD0C1
:100C700010B1B0F5A02F11D0286820F48030286082
:100C8000286820F4802002E0286840F48030286042
:100C9000606890B1FFF7E2FD06460AE0286840F47C
:100CA00080202860F0E700BFFFF7D8FD801B642894
:100CB00073D828688003F7D50CE0FFF7CFFD064610
:100CC00005E000BFFFF7CAFD801B6428F0D8286844
:100CD0008003F7D420789A4E80074FF001094FF037
:100CE000000839D5686810F00C0F07D06868C0F3A9
:100CF0008100022809D16868C00306D428688007EB
:100D000014D52069012808D110E02069B0B1C6F8D7
:100D10000090FFF7A3FD074605E00AE1FFF79EFDFF
:100D2000C01B0228C4D828688007F7D528686169E5
:100D300020F0F80040EAC10028600DE0C6F800800D
:100D4000FFF78CFD074604E0FFF788FDC01B022873
:100D500023D828688007F7D4207800072CD5794855
:100D6000A169D9B1C0F80090FFF778FD074604E00B
:100D7000FFF774FDC01B02280FD8686A8007F7D5FB
:100D800071484FF4FA510068B0FBF1F0009000BFD9
:100D90000098411E0091FAD20EE080E0C0F8008079
:100DA000FFF75CFD074604E0FFF758FDC01B022873
:100DB00075D8686A8007F7D42078400760D5E8695D
:100DC0000027C00008D4E86940F08050E861E86975
:100DD000012700F0805000905C480168C90513D4D9
:100DE0000168834641F480710160FFF737FD824658
:100DF00006E000BFFFF732FDA0EB0A0064284ED8E2
:100E0000DBF80000C005F5D5E06801280AD008B17C
:100E1000052813D0286A20F001002862286A20F0F3
:100E2000040002E0286A40F001002862E06841F214
:100E3000883B98B1FFF712FD82460BE0286A40F02C
:100E400004002862EEE700BFFFF708FDA0EB0A01EF
:100E500059455AD8286A8007F6D50CE0FFF7FEFC02
:100E6000824605E0FFF7FAFCA0EB0A0159454CD891
:100E7000286A8007F6D41FB1E86920F08050E86145
:100E8000E06988B36968C1F38101022944D002286E
:100E9000C6F8608004D0FFF7E1FC044638E034E097
:100EA000FFF7DCFC074604E0FFF7D8FCC01B022874
:100EB0002BD828688001F7D4206AB0F5803F05D18F
:100EC0006868A16820F4003008436860D4E908012C
:100ED0000843696821F4741108436860C6F860909B
:100EE000FFF7BCFC044606E025E000BFFFF7B6FCB8
:100EF000001B022809D828688001F7D51BE000BF35
:100F0000FFF7ACFC001B022802D90320BDE8F88FD4
:100F100028688001F4D40EE00128F7D06868226ABE
:100F200000F48031914204D1616A00F4701088426B
:100F300001D00120EAE70020E8E7000000100240AD
:100F40000000424280044242100000200070004035
:100F500010B5401EB0F1807F01D3012010BD4FF0CD
:100F6000E02460610F21601700F0F5FB0020A06114
:100F700007202061002010BD70477047F8B5016858
:100F800004460868CA684B6910F00F0F4FF000055F
:100F900059D003F0010602F49077374365D0C107BA
:100FA00005D0D10503D5616C41F0010161644107B1
:100FB00005D5D90703D0616C41F002016164810756
:100FC00005D5D90703D0616C41F0040161640107C4
:100FD00007D502F02001314303D0616C41F00801D4
:100FE0006164616C00293AD0800604D5900602D570
:100FF000204600F097FA20684069616CC0F38010C9
:10100000090700D460B3204600F052FA2068406916
:10101000400621D52068143050E8001F21F040011F
:1010200040E80012002AF5D1E06BA8B16D49416398
:10103000E06BFFF715FA002811D0E06B416B01B0AF
:10104000BDE8F040084783060FD593060DD520462E
:10105000BDE8F84000F066BA2046FFF78EFFF8BD05
:101060002046FFF78AFF6564F8BD266B2023012E1A
:101070007CD1C6067AD5D60678D50868486800902F
:1010800048694FF00206400640D5E16B08684068A9
:101090000004000CE8D0A28D8242E5D9E085886981
:1010A00020282DD020680C3050E8001F21F48071DA
:1010B00040E80012002AF5D12068143050E8001FE3
:1010C00021F0010140E80012002AF5D12068143017
:1010D00050E8001F21F0400140E80012002AF5D13D
:1010E00084F84230256320680C3050E8001F21F05E
:1010F000100140E80012002AF5D1E06BFFF78CF9EF
:101100006663A08DE18D401A81B22AE0A08DE18D49
:10111000401A81B2E08D0028A6D00029A4D0226810
:101120000C3252E8000F20F4907042E80007002FC4
:10113000F5D12068143050E8002F22F0010240E879
:101140000027002FF5D184F84230256320680C3049
:1011500050E8002F22F0100240E80023002BF5D1C8
:1011600066632046FFF708FFF8BDFFE705062BD5AD
:10117000150629D594F841002128F5D1A068B0F5CD
:10118000805F01D12069B0B1206A411C21622168D1
:1011900000784860E08C401E0004000CE084E3D13D
:1011A0002068C16821F08001C1602068C16841F0F9
:1011B0004001C160D8E7206A0088C0F30800486099
:1011C000206A801C2062E5E74006CDD55006CBD5CD
:1011D000CA68204622F04002CA6084F8413000F01C
:1011E000E9F8C1E7A114000870B5040004D094F830
:1011F0004100002510B106E0012070BD84F8405088
:10120000204600F023F8242084F841002068C168BB
:1012100021F40051C160204600F0E6F92068016920
:1012200021F4904101612068416921F02A01416166
:101230002068C16841F40051C1606564202084F8D1
:10124000410084F842006563002070BD30B585B070
:101250000024009401940294039400681849884281
:101260002CD11848816941F480418161816901F480
:1012700080410491816941F0040181618069124DCE
:1012800000F0040004904FF40070009002200190E0
:101290000320039069462846FFF7F0F92815CDE9A9
:1012A0000004694628460294FFF7E8F90022114637
:1012B0002520FFF741FB2520FFF730FB05B030BDAF
:1012C00000380140001002400008014090F8423010
:1012D000202B01D00220704721B11AB100230363F3
:1012E00000F0DEB90120704710B5084900680968B0
:1012F00088420AD10648007800F05EFCBDE8104044
:10130000012203490148FFF7E1BF10BD2000002082
:10131000000000202DE9F843044690F8410098466B
:1013200016460D46202802D00220BDE8F88385B17C
:101330007EB100206064212084F84100FFF78EFA1E
:10134000A6848146E684A0682027B0F5805F02D09D
:1013500003E00120E9E7206910B12E4600250EE0E8
:1013600000260CE08021204600F0B5F9A8B9C6B1EE
:1013700016F8010B21684860E08C401EE084E08C88
:101380004B464FF00002CDF800800028EAD14FF024
:101390004001204600F09FF940B184F841700320DD
:1013A000C3E735F8020BC0F30800E3E784F84170A7
:1013B0000020BAE77047FEE7FEE7FEE77047D0E996
:1013C0000123991A9A4203DA8089401A80B2704741
:1013D00088B270470160002141608160828170475E
:1013E00010B5D0E901239A4202D14FF0FF3010BD71
:1013F0005A1C848992B2944200D800220468E35CAB
:101400000B708260002010BD10B5436884895A1C9F
:1014100092B2944200D800228468944202D14FF0E4
:10142000FF3010BD0468E1544260002010BD7047D9
:10143000FFF71ABA30B58FB028216846FEF7FBFED9
:1014400014210AA8FEF7F7FE01210804CDE90010D7
:101450000024029402250491CDE907504FF4E010D6
:1014600009906846FFF7E4FB08B172B6FEE70F206B
:10147000CDE90A054FF48060CDE90C4002210AA8AD
:101480000E94FFF78BFA002801D072B6FEE70FB07A
:1014900030BD70470148FFF792BF000008010020EF
:1014A00010B5406A0021C185C184FFF766FD10BDFB
:1014B00001680C3151E8002F22F4907241E80023BA
:1014C000002BF5D10168143151E8002F22F0010200
:1014D00041E80023002BF5D1016B012909D10168F6
:1014E0000C3151E8002F22F0100241E80023002BBC
:1014F000F5D1202180F842100021016370470000DF
:101500000249802201F18000FFF764BF88000020BB
:1015100008B569460248FFF763FF9DF8000008BD63
:101520000801002008B590F84210222901D00220BD
:1015300008BD82684FF480539A4201D1016921B1FC
:10154000816A9A421BD04AB10AE00268816A5268F5
:10155000C2F308020A80816A891C08E0026972B13C
:101560000268526802F07F020A70816A491C816237
:10157000C18D491E0904090CC18503D01BE0026816
:101580005268F1E70168CA6822F02002CA60016867
:10159000CA6822F48072CA6001684A6922F00102B6
:1015A0004A61202180F8421000214163026B012A28
:1015B00003D0FFF799FE002008BD016301680C31DC
:1015C00051E8002F22F0100241E80023002BF5D152
:1015D00001680A68D20602D50A6849680091818DBF
:1015E000FFF7CAFCE7E7000070B504460068016930
:1015F000E26821F44051114301612169A068084368
:10160000616908432168CA6841F20C639A43024346
:10161000CA6020684169A26921F4407111434161A7
:101620001E492068884202D1FFF7CCFA01E0FFF79B
:10163000B9FA00EBC00101EB001260686421800080
:10164000B2FBF0F3B3FBF1F36FF018067343B2FB98
:10165000F0F5B2FBF0F605EB8305322303EB05153D
:10166000B5FBF1F5B6FBF1F605F0F00505EB061557
:10167000B2FBF0F6B2FBF0F0B0FBF1F06FF0180245
:10168000504306EB800003EB0010B0FBF1F0216843
:1016900000F00F002844886070BD00000038014051
:1016A00081628285C28500214164222180F8421036
:1016B000016921B10168CA6842F48072CA60016898
:1016C0004A6942F001024A610068C16841F02001A4
:1016D000C160002070472DE9F843984617460D4633
:1016E0000446089E24E0701C22D0FFF7B7F8A0EB58
:1016F0000800B0421AD8CEB12068C168490717D592
:10170000802D15D0402D13D00168C94309070FD48F
:1017100001680025406800902046FFF7C9FE0820B8
:10172000606484F840500120BDE8F8830320FBE7A3
:101730002068006835EA000004D00020B842D2D00A
:101740000020F1E70120F9E70148FFF717BC00008E
:1017500020000020FEE70907090E002804DB00F145
:10176000E02080F80014704700F00F0000F1E02046
:1017700080F8141D7047000038B50024FFF78AFE7A
:1017800020B1FFF7C5FE8DF800000124224669460E
:10179000014800F052F938BD1801002010B5FFF7DC
:1017A000AFFE0021034800F039F9034900204870DA
:1017B00010BD000018010020140000200B46024656
:1017C0000121014800F049B91801002010B5026854
:1017D000074C4A4000210260134602F001025242C7
:1017E000224082EA5302491C02600829F4D310BD4A
:1017F0002083B8ED00B585B00022CDE9020100924A
:1018000004A96846FEF788FE05B000BDFEF7D8BE05
:1018100030B5002306E0C458CC54240ACD189B1CD4
:101820006C709BB29342F6D330BDFEF713BF2DE927
:10183000F04115460E46074600240FE0601CA84202
:1018400002D23019028802E0305D40F47F4239193B
:1018500000230120FEF7BEFEA41CA4B2AC42EDD3CF
:10186000BDE8F081014800787047000014000020B6
:1018700008B5FFF701F8FFF7DDFD2C48816941F05D
:1018800020018161816901F020010091816941F0AD
:10189000040181618069264900F004000090254818
:1018A000002401604FF4E131C0E901140C21C4604F
:1018B000C0E904418461C461FFF796FC08B172B6C7
:1018C000FEE7FFF76BFF01221B491A48FFF7FEFCFA
:1018D000FFF7ABFF1849194F0122491C3846FFF7A3
:1018E00097FF154D164E6878FF2802D001280BD0BF
:1018F0000DE011496C700122491C3846FFF797FF33
:10190000FFF784FF01206870304600F05BF96878CB
:1019100010B9022000F034F9FFF72EFFFFF7A2FF05
:101920000128F9D1304600F04DF9F5E700100240EA
:1019300000380140200000200000002000FC0108C9
:10194000005000082DE9F041314C00250126607857
:10195000304F04280CD2DFE800F00213283C08784E
:10196000002805D18878022804D0032800D16570AA
:10197000BDE8F0816670BDE8F041002000F00EB9CE
:1019800008780028F4D188780028F1D1606838B947
:10199000FFF74BFF32213846FFF72CFFFFF736FFEA
:1019A000002000F0FBF8022011E008780D46012825
:1019B000DED1A91C1848FEF71AFC174805F13401BE
:1019C0003230FEF714FC002000F0E8F803206070CD
:1019D000CEE7087802280BD00028C9D188780128E2
:1019E000C6D1002000F0DAF8657065602670BFE7A8
:1019F0000D46FFF71AFF60686A78A91C3844FFF7A4
:101A000016FFFFF703FF6878616808446060AFE77E
:101A100014000020005000083002002070B50D4670
:101A200004464FF48C71FEF706FC002084F80C018C
:101A300084F80D0184F8145170BD2DE9F04115466C
:101A40000E460746002404E0315D384600F0D2F827
:101A5000641CAC42F8D3BDE8F081FEB506461C46D6
:101A600017460D4690F8140100F01DF804F10B0123
:101A700088420CD34FF6FF700021CDE9001002948C
:101A800005F03F013B460022304600F011F8FEBD54
:101A900013B56423012201A90148FFF73BFC1CBDDB
:101AA0002000002070474FF400707047704700001E
:101AB0002DE9F0470446DDE909950220089E84F8E7
:101AC0001301C01EC4F8080194F814019846924608
:101AD0000F4604F58474FFF7E9FF207BAA21FFF786
:101AE000D7FF207BAA21FFF7D3FF207BAA21A4F5F3
:101AF0008474FFF7CDFF01223946204600F00BF930
:101B0000380604D501225146204600F004F901228E
:101B10002946204600F0FFF80CE000BF18F8061038
:101B20000122204600F0F7F8761CB6B26D1E06EAD8
:101B30000906EDB2002DF1D1D4F808010022C54309
:101B4000290E204600F0E7F80022C5F307412046A1
:101B500000F0E1F80022C5F30721204600F0DBF891
:101B6000E9B20022204600F0D6F894F8140155217D
:101B7000FFF78EFF94F81401BDE8F047FFF792BF1E
:101B800008B500218DF8001001218DF801108DF8A5
:101B9000020003216846FFF711FE08BD08B50321C6
:101BA0008DF8001001218DF801108DF8020003213D
:101BB0006846FFF703FE08BD01460148FFF724BC55
:101BC0000801002010B50446FEF77EFFFEF794FCE6
:101BD00006494FF4E0200860206880F308886068B8
:101BE00003490860BDE810400047000024ED00E014
:101BF0001C0000202DE9F041044690F80C0100255E
:101C0000022812D0AA2919D084F80C5194F80D2179
:101C10000526032704F582700A2A79D2DFE802F04C
:101C20002012222937484D555F6B84F80C51AA29A0
:101C300002D0552914D06BE001204DE0401C84F8FF
:101C40000C01E3E784F80F1184F80E514FF0FF32D6
:101C5000C4F8042104F58274FFF7B8FD2573677298
:101C6000BDE8F08184F81011FFF7B0FD84F80D7124
:101C7000F6E784F8111184F81211FFF7A7FD94F824
:101C8000110108B1042027E084F80D61E8E794F819
:101C90000E21531C84F80E31A154FFF797FD94F8E0
:101CA0001101401E10F0FF0084F81101ECD0D7E7BD
:101CB0000806C4F8000106200EE0D4F8000140EA4E
:101CC0000140C4F80001072006E0D4F8000140EA12
:101CD0000120C4F80001082084F80D01C0E7D4F801
:101CE00000010843C4F80001D4F80411C943884234
:101CF0000ED10920F0E755290AD194F80F012146A9
:101D000094F8122194F8143100F03F00FFF71AFE06
:101D100084F80D51A4E770B5044616460D4690F8B8
:101D20001401FFF7B5FE26B1294604F58470FFF7CC
:101D30004DFD0226AA2D0CD194F81301401E10F07F
:101D4000FF0084F8130106D194F814015521FFF720
:101D50009FFE84F8136170BD0102020304050607AB
:101D600008090A0B0C0D0E0F1010000000000000F7
:101D70000000010203040607080900000000010238
:101D800003040000A41D0008000000202000000043
:101D900028010008C41D000820000020B808000029
:101DA00044010008000000000100000010000000D5
:101DB0000000000000127A00000000000000000097
:041DC000000000001F
:04000005080000ED02
:00000001FF
